:10E0000002E003E4F5CBF5CAF5CCF5CDF5C9F5C8CA
:10E0100020B0FD30B0FDD2CA30B00330CFFA30B0FE
:10E02000FD30B00330CFFA30B0FDC2CA20CFD4AF3C
:10E03000CCAECDEEC313FCEF132FFFEC3EFEEF246E
:10E0400010FFE43EFEEF7805CEC313CE13D8F9FFE0
:10E05000C3E49FF5CAF5CCE49EF5CBF5CD75C83485
:10E0600075985AC2983098FDE599B411F6758E11DD
:10E0700002E27DA29822A29922E59922F59922C274
:10E080009922D29922C29822C2AC22D2AC22222258
:10E0900075D10822F0D32243A22012FFF353A2DF4E
:10E0A0002275D108F043A220C0E012FFF3D0E05364
:03E0B000A2DF22CA
:10E10000000000000000000000000000000000000F
:10E1100000000000000000000000000000000000FF
:10E1200000000000000000000000000000000000EF
:10E1300000000000000000000000000000000000DF
:10E1400000000000000000000000000000000000CF
:10E1500000000000000000000000000000000000BF
:10E1600000000000000000000000000000000000AF
:10E17000000000000000000000000000000000009F
:10E18000000000000000000000000000000000008F
:10E19000000000000000000000000000000000007F
:10E1A000000000000000000000000000000000006F
:10E1B000000000000000000000000000000000005F
:10E1C000000000000000000000000000000000004F
:10E1D000000000000000000000000000000000003F
:10E1E000000000000000000000000000000000002F
:10E1F000000000000000000000000000000000001F
:10E20000C082C083900609F0E5D0A3F0E4F5D0C544
:10E21000A8A3F0D0E0A3F0D0E0A3F0D0E0A3F0D02A
:10E22000E0A3F0A3E0C581F0E5F0A3F0E8A3F07867
:10E230000008A3E0C6F0E8B46FF712E08F12ED809B
:10E2400012E9FA12E8FF12E8ED12E8ED12E8ED1219
:0EE25000E8FF90060EE8F0A3E9F012E082224B
:10E2670056342E30300000E021EF0006C4060000CF
:10E27700230080008000758107900609E47805F087
:10E28700A3D8FC7400F0A37400F0A37407F0A3E410
:10E29700F0F52304F524900601790078A512E2FA37
:10E2A700783312E2FA78CC12E2FAE960107A0B7D41
:10E2B7000012E9ACE4F530F531900608F012ED8074
:10E2C70012E6B2B4110AE52312E6A6F4F52380F0AC
:10E2D700B40107E52412E6A680E612E2E680E1F53E
:10E2E700251414540E90E6E2FF93CFA3938F83F582
:10E2F70082E473E06849F9E8F0A322740612E6A6FF
:10E30700E52812E6A69006047804E012E6A6A3D84C
:10E31700F9740412E6A62275280012E6BEF52660F7
:10E327003712E6BEF58312E6BEF58212E6BEF52782
:10E33700AF26BF050312E09012E6BE12E7C4A3D5CD
:10E3470027F612E6BEAF26BF050312E097E5256064
:10E357000375280212E3022212E6BE90060EF0A30E
:10E3670012E6BEF012E6BE80D975280012E6BEF5A9
:10E377002612E6BEF58312E6BEF58212E6BEF52743
:10E3870012E6BEE525600775280212E3022275250D
:10E3970000740212E6D2E526601212E86612E6D28F
:10E3A700A3D527F6E4C3952512E6D22290060EE000
:10E3B70012E6D2A3E012E6D280EA75280012E6BE82
:10E3C700F52912E6BEF52712E6BEF52612E6BEF5DA
:10E3D7008312E6BEF58212E6BEE5256007752802C0
:10E3E70012E30222E4B5290612E97B02E30204B52F
:10E3F700290612E99F02E30204B5290612E99B02E6
:10E40700E30204B5290612E9A302E30212E9D002E6
:10E41700E30275280012E6BEF52912E6BEF52712BB
:10E42700E6BEF52612E6BEF58312E6BEF58212E6D3
:10E43700BEFA12E6BEF812E6BEF912E6BEE52560A0
:10E447000775280212E30222E4B5290C12EAF11239
:10E45700E073500312E6B22204B5290302E48604EE
:10E46700B52908C21112EAB502E486C21212EAB34C
:10E4770020120B12E30212E073500312E6B2227568
:10E487002500740212E6D27526047583007582E0B2
:10E4970012E86612E6D27582F012E86612E6D275C5
:10E4A70082D0752A0812E8665418F58212E86612B7
:10E4B700E6D2A3D52AF675828312E86612E6D275EC
:10E4C700828212E86612E6D290060EE012E6D2A326
:10E4D700E012E6D27582D012E86612E6D2E412E6BE
:10E4E700D2E412E6D2E412E6D2E412E6D2758281D1
:10E4F70012E866F58212E6D275260112E86612E680
:10E50700D21582D527F5E4C3952512E6D2227528C0
:10E517000012E6BEF52612E6BEF58312E6BEF582C8
:10E5270012E6BE04F52912E6BE04F52712E6BEF58B
:10E537002A8006E52A12E7C4A3D527F7D529F412BE
:10E54700E6BEE525600375280212E302227528005E
:10E5570012E6BEE525600775280212E30222C21102
:10E5670012EAB590060EE0F8A3E0F9900604E8F089
:10E57700A3E9F08883898275260512E86690060666
:10E58700F012E3022275280012E6BEF52912E6BE54
:10E59700F52712E6BEE525600675280202E302E4C8
:10E5A700B529065324FB02E30204B52906432404D4
:10E5B70002E30204B52908E4F530F53102E30285E8
:10E5C7003082E5276009C3E5309527F5825007E5D6
:10E5D70031700302E302752500740212E6D27583D7
:10E5E700F2E012E6D20583E012E6D20583E012E6F6
:10E5F700D20583E012E6D20583E012E6D20583E076
:10E6070012E6D20583E012E6D20583E012E6D205D0
:10E6170083E012E6D20583E012E6D20583E012E634
:10E62700D20583E012E6D20583E012E6D20583E045
:10E6370012E6D20583E012E6D20583E012E6D205A0
:10E6470083E012E6D20583E012E6D20583E012E604
:10E65700D20583E012E6D2E4C3952512E6D22275ED
:10E66700280012E6BEF52912E6BEE52560067528E4
:10E677000202E302E4B52907900608F002E3020468
:10E68700B52907900608F002E30290060474FFF02C
:10E69700A374E2F0A37467F0A37416F002E3021206
:10E6A700E07650FB12E07F12E07C2212E07350FB11
:10E6B70012E07912E0852212E07350FB12E0791222
:10E6C700E085C0E02525F525D0E02212E07650FB55
:10E6D70012E07F12E07C2525F52522E31EE370E397
:10E6E700C1E419E515E554E58CE666900023E4934B
:10E6F7006402600B740212E0A1E49364027032A317
:10E70700E49364E76011E49364E7600B74E712E055
:10E71700A1E49364E7701AA3E49364936011E4930C
:10E727006477600B749312E0A1E49364937002C35F
:10E7370022D32212E08812E082E58124FAC8868378
:10E74700088682A3A3A3A68218A683C8D0D0D083A5
:10E75700D082D0E012E76102E2003212E07650FB8D
:10E7670012E07F12E08B90060BE0448045A8F02270
:10E77700C0E0C082C083C0D075D000900608E070AA
:10E7870016D0D0D083D082D0E0020023C0E0C08270
:10E79700C083C0D075D00012E073400302E7B812FF
:10E7A700E07912E085B4110302E7B8B41B0302E76E
:10E7B7003A12E07FD0D0D083D082D0E032AF26BFEC
:10E7C7000102804DBF0202803DBF0302803ABF04B1
:10E7D70002803EBF05028009BF060280677528FFD9
:10E7E70022C312E09450042212E0A1FFE493B5077C
:10E7F7000122E528700F752803A882A983900606D1
:10E80700E9F0A3E8F022F022A882F2220989827FA8
:10E8170001FEE582B47000400720E715F8EEF62206
:10E82700C082C08390061212E8E3EEF0D083D08254
:10E8370022BF010280E6C082C083F8EE12ED9FD0AE
:10E8470083D082221392D512E8D3C0E012E89A0E41
:10E85700AF0613DFFDA2D533DEFDFED0E080B5AFF6
:10E8670026BF0102802BBF0202801BBF0302801854
:10E87700BF0402801CBF05028009BF0602804075E5
:10E8870028FF22E49322E022A882E2228982197FCC
:10E8970001E582B47000400620E716F8E622C08240
:10E8A700C0832412F582E43406F583E0D083D08256
:10E8B70022BF010280E5C082C08312ED9880ED126D
:10E8C700E8D312E89A0E13DEFDE43322E582FE5404
:10E8D70007CE6E20E7050303032420222582F58255
:10E8E700E43583F583220582D582021583158222BA
:10E8F700A3E0F8A3E0F9A322C8C583C8C9C582C9A4
:10E9070022E0FB12E8FFE493CB12E91A12E8FFEBCF
:10E91700F0A32212E7EFA322F528A882A983900685
:10E9270004E527F0A3E526F0A3E9F0A3E8F022EA3F
:10E9370075F006A490067C12E8E3E0227A000A123A
:10E94700E936B50002B322BA0AF422AE83AF827A5F
:10E957000A12E936601B12E8F7C39FFBE89E7002B4
:10E967008009C3EF99FBEE98C37006BB0200500104
:10E9770022DADE2212E9527404409D780012E9433C
:10E98700740550941A8A277401F0A3EEF0A3EFF0F0
:10E99700E402E91F7D0180067D0280027D00E527F4
:10E9A700B480107A0A12E9366002EDF0DAF722E84D
:10E9B70002E91F7807B40A0050F5FA0A12E9367817
:10E9C7000660ECEDF0E402E91FE5277807B40A00DA
:10E9D70050DD75F006A4FF9006822582F582E0F5EA
:10E9E70027A3E0F8A3E0F9A3E0F52688838982E46A
:10E9F70002E91F90060E02E8F8EC90EE219354FC12
:10EA070090EA0B7302EC9C0002EA6F0002EA6900CD
:10EA170002EA640002EA5E0002EA4C0002EA4800E9
:10EA270002EC860002EC8A0002EDFA0074E012EDB7
:10EA370098F8A3A3A3E0F9A3E028F52CE439F52B74
:10EA47002212EA4C3212ED96F912E893F52B12E8EE
:10EA570093F52CE902ED9D20111E12EE0B8D2B8EE6
:10EA67002C2220111312EE0BEC03C45407C52B54B0
:10EA7700F8452BF52B8D2C22AE2BAF2C7A0B12E9F8
:10EA87003612E98EE5245404600302EA9C7A0B12DD
:10EA9700ED4202ECC412E302D212C211800312EB60
:10EAA700C512EABE7A0A12EBAB50F322D211E52463
:10EAB7005404600312EBC512E9FA882B892C12E87B
:10EAC700FFE493FCA3E493FDA3E493FEEC90EE2113
:10EAD700935403FA252CF52CE4352BF52B12EA0079
:10EAE700852C82852B8312E24F22E526600BC0001E
:10EAF700C00112E24FD001D00012E8FF7D00EA60AA
:10EB07000512E9527D017A0B12E936ED12E990E51B
:10EB1700245404600302EB3712ED40E528600D64CE
:10EB270003700912ED8012E302D2122212ECC42202
:10EB370012E302533A00900608E0700912EAB51290
:10EB4700EBA950F82212E073504F12E6B2F8E53AFB
:10EB5700053A600B14601414601814601C8037B8F1
:10EB67001B0122B8043012E6A6802E882612E6A6DC
:10EB77008027883B12E6A68020888212E6A6853B7E
:10EB870083E526700B90060EE012E6A6A3E080034D
:10EB970012E86612E6A6533A0012EAB512EBA9503C
:10EBA700A4227A0012E9FA0ABA0C012212E936B451
:10EBB70001F5A3E0B500F0A3E0B501EBB3229006A1
:10EBC70009E0F532A3E0F53390060CE0F534A3E055
:10EBD700F535A3E0F536A3E0F537A3E0F538A3E074
:10EBE700F539E53354182412F582E43406F583E049
:10EBF700F8A3E0F9A3E0FAA3E0FBA3E0FCA3E0FDA0
:10EC0700A3E0FEA3E0FF7583F2853082E532F005CD
:10EC170083E539F00583E8F00583E9F00583EAF039
:10EC27000583EBF00583ECF00583EDF00583EEF04B
:10EC37000583EFF00583E535F00583E534F00583BB
:10EC4700E537F00583E536F00583E533F00583E521
:10EC570038F00583E580F00583E590F00583E5A0AE
:10EC6700F00583E5B0F00530E5307003753101221A
:10EC7700741212E91A74E112E91A740002E91A8D82
:10EC8700067D037F00EE7E0330E7011F252CF52E5E
:10EC9700EF352BF52D90E25E12E24F12E8FF780474
:10ECA700E612E91A08DAF912EC7785822F12EC7767
:10ECB70012ECEBB52F06852E2C852D2B22900608FE
:10ECC700E0601C12E6F2500D12ED807464F5281214
:10ECD700E302D2122212E302D21212E76280051275
:10ECE700E302D21212E07F12E08E900681786FE085
:10ECF700C6F00582D5820215831582D8F2E0F89016
:10ED07000611E0F5F0900610E0C581F090060FE0DF
:10ED1700C0E090060EE0C0E090060DE0C0E090066F
:10ED27000CE0C0E090060BE0F5A890060AE090061C
:10ED370009F5D0E0D083D082227A0112E9FAAE0138
:10ED4700AD0012E936B4012CC083C08212E8F7C3C4
:10ED5700EE99FCED98700CBC0200500775280874FA
:10ED670001800C741212E90974E112E9097403D0E5
:10ED770082D083F00ABA0CCA227A0B12E936B4039E
:10ED87000C7401F012E8F712E90812E908DAEC74DA
:10ED970081D210F880047881C210900609B8E00289
:10EDA7008024A3B8D002801EA3B8A8028018A3B8F5
:10EDB70083028012A3B88202800C900610B88102E9
:10EDC7008004A3B8F007201002F022E02279E520A2
:10EDD70010027988C0E090E25EE912E7EFA982E5C8
:10EDE70083C8A312E91A742212E91A89828883E474
:10EDF700D0007374E012ED98852C82852B8393786D
:10EE0700E002ED9F12ED96C006F9E52C12E813E536
:10EE17002B12E813E9D00602ED9D01060F0101024E
:10EE270001010101010101010101230A130101028D
:10EE3700010101010101010101012306150102027E
:10EE470001010101010101010101230A1901020266
:10EE5700010101010101010101011E060203020274
:10EE6700010101010101010101011E0A0203020260
:10EE7700010101010101010101011E060203020254
:10EE8700010101010101010101011E0A0229020319
:10EE9700020202020202020202021E060225010308
:10EEA70002020202020202020202030A0201020233
:10EEB7000101010101010101010102060201010134
:10EEC70002020202020202020202020A02012323D2
:10EED70023232323232323232323020602010102BF
:10EEE70001010101010101010101020A02010123DE
:10EEF70001011E1E1E1E1E1E1E1E0106010101020D
:10EF070001010101010101010101010A01010102E0
:0AEF170001010101010101010101E6
:00000001FF
